:020000040800F2
:1000000000140020DD010008D71F0008951C00081F
:10001000D51F00080107000899280008000000000B
:100020000000000000000000000000004501000882
:1000300083070008000000008901000891220008E1
:10004000F7010008F7010008F7010008F7010008B0
:10005000F7010008F7010008F7010008F7010008A0
:10006000F7010008F7010008F7010008F701000890
:10007000F7010008F7010008F7010008F701000880
:10008000410700084D070008F7010008F7010008C4
:10009000F7010008F7010008F7010008F701000860
:1000A000F701000855230008F7010008F7010008D0
:1000B000612300086D230008F7010008F70100081C
:1000C000F7010008F7010008F7010008F701000830
:1000D000F70100085527000861270008F70100080C
:1000E000F7010008F7010008F7010008F701000810
:1000F000F7010008F7010008F7010008F701000800
:10010000F7010008F7010008F7010008F7010008EF
:10011000F7010008F7010008F7010008F7010008DF
:10012000F7010008F7010008F7010008F7010008CF
:10013000DFF80CD000F0B8F800480047CD2A0008DE
:1001400000140020224B19680868B0E8F00F80F313
:100150000988BFF36F8F4FF0000080F311884EF0D5
:100160000D0E70470000000006480068006880F32C
:10017000088862B661B6BFF34F8FBFF36F8F00DFA1
:1001800000BF00BF08ED00E0EFF30980BFF36F8F01
:100190000F4B1A6820E9F00F106008B54FF05000BF
:1001A00080F31188BFF34F8FBFF36F8F03F034F9E3
:1001B0004FF0000080F31188BDE808401968086816
:1001C000B0E8F00F80F30988BFF36F8F704700BF6E
:1001D00028000020EFF305807047000006488047A4
:1001E00006480047FEE7FEE7FEE7FEE7FEE7FEE71C
:1001F000FEE7FEE7FEE7FEE70D23000831010008F9
:1002000040EA01039B0703D009E008C9121F08C098
:10021000042AFAD203E011F8013B00F8013B521E18
:10022000F9D27047D2B201E000F8012B491EFBD28F
:1002300070470022F6E710B513460A4604461946F1
:10024000FFF7F0FF204610BD30B505462A460B46A5
:1002500012F8010B13F8014B08B1A042F8D01CB101
:10026000002802D06D1CF1E7284630BD421C10F872
:10027000011B0029FBD1801A704730B50B4601469F
:1002800000202022012409E021FA02F59D4205D335
:1002900003FA02F5491B04FA02F52844151EA2F1DF
:1002A0000102F1DC30BD0000064C074D06E0E068BD
:1002B00040F0010394E8070098471034AC42F6D3AD
:1002C000FFF73AFFD43D0008F43D000808B50C20C4
:1002D0008DF800001E230CA20CA10CA001F022FF3F
:1002E00008B10CA00BE012480068002809D00023D8
:1002F0000A22694603F07AF9012803D00DA002F022
:10030000CDFA08BD12A0FAE74F4B00004154453129
:100310000000000053656E64204154453120436F56
:100320006D6D64204661696C6564210D0A000000F2
:100330000400002041545F526573756C745F517501
:100340006575652069732046756C6C210D0A000087
:10035000415445312052657475726E205375636344
:100360006573732053656E6420746F2071756575B5
:1003700065A1ADA1ADA1AD210D0A000008B50D200C
:100380008DF800001E230CA20DA10DA001F0CAFEE5
:1003900008B10CA00BE012480068002809D0002327
:1003A0000A22694603F022F9012803D00DA002F0C9
:1003B00075FA08BD12A0FAE75175656374656C00A3
:1003C0004154490053656E642041544920436F6D88
:1003D0006D64204661696C6564210D0A00000000AF
:1003E0000400002041545F526573756C745F517551
:1003F0006575652069732046756C6C210D0A0000D7
:100400004154492052657475726E2053756363655B
:1004100073732053656E6420746F20717565756504
:10042000A1ADA1ADA1AD210D0A0000001CB50F20AA
:100430008DF8000010208DF804001E2318A21AA1C8
:1004400019A001F06FFE1A4CA8B11E2319A216A123
:1004500015A001F067FE00281FD119A002F01EFAB6
:100460002068002819D000231A4601A903F0BEF81D
:10047000012813D00CE018A002F010FA2068002820
:100480000BD000231A46694603F0B0F8012801D0CA
:1004900016A000E01CA002F001FA1CBD28A0FAE79B
:1004A000343630300000000041542B43494D4900A0
:1004B000040000202B434D45204552524F523A0034
:1004C00041542B43494D4920646F312066696E7356
:1004D00068210D0A0000000041542B43494D49207A
:1004E000646F2066696E7368210D0A0041545F5283
:1004F0006573756C745F5175657565206973204609
:10050000756C6C210D0A000041542B43494D492064
:1005100052657475726E204F4B20616E6420537566
:1005200063636573732053656E6420746F20717507
:10053000657565A1ADA1ADA1AD210D0A000000005A
:1005400041542B43494D492052657475726E2046C3
:1005500061696C20616E64205375636365737320F9
:1005600053656E6420746F207175657565A1ADA1CA
:10057000ADA1AD210D0A000008B50E208DF80000D8
:100580001E230CA20CA10CA001F0CCFD00280DD163
:100590000C480068002809D000230A22694603F0AD
:1005A00025F8012803D008A002F078F908BD0DA0B5
:1005B000FAE700004F4B000041542B434D45453DA9
:1005C000310000000400002041545F526573756CD7
:1005D000745F51756575652069732046756C6C2173
:1005E0000D0A000041542B434D45453D31205265D5
:1005F0007475726E20537563636573732053656EF3
:100600006420746F207175657565A1ADA1ADA1AD54
:10061000210D0A00F0B5074685B01E480025049557
:1006200000680E462C46002832D004AA1A4903F06E
:1006300087F9012801D019A025E039461648FFF7AF
:1006400003FE154910B91DE0641CE4B2085D0D28D5
:10065000FAD1081940780A28F6D100206A460B1909
:10066000641C9B781354401CC0B2E4B20F28F6D32C
:1006700031461046FFF7E8FD38B10FA002F00EF941
:10068000012502E013A002F009F905B02846F0BDEB
:1006900015A0F8E700000020B0020020576169743F
:1006A00074696E672074686520517565756520648E
:1006B000617461210D0A0000415420636F6D6D6407
:1006C0002072657475726E20537563636573732150
:1006D0000D0A000041542072657475726E204661E7
:1006E000696C210D0A000000437265617420746812
:1006F00065207175657565204661696C210D0A007C
:10070000FEE7000030B40A4900200246094C0B788D
:1007100002E02254401CC0B29842FAD306480A7044
:100720000449027030BC5A22044801F007BA0000A4
:100730001400002014020020150000204C010020AD
:10074000014800F0DBB800008C010020014800F0F7
:10075000D5B80000D001002030B590F840500124F9
:10076000AC40C56B6C60046863604368102B036821
:1007700003D099600068C26030BD9A600068C160B3
:1007800030BD7047704710B590F821100022022943
:1007900005D00421816380F82020012010BD01686C
:1007A0000B6823F00E030B6001680B6823F0010354
:1007B0000B6090F84030C46B012101FA03F36360D1
:1007C00080F8211080F82020104610BD2DE9F05F40
:1007D00090F821100024022903D004218163012410
:1007E00085E001680A6822F00E020A6001680A6862
:1007F00022F001020A603F4E3E4FB215DFF8F4C00E
:10080000DFF8F090DFF8ECA0DFF8E8B0DFF8E4E024
:100810000168783F13011502ACF1640CA9F150098D
:10082000AAF13C0AABF1280BAEF1140E4FF480187C
:10083000B14227D9B9420ED0614512D049451DD0E9
:10084000514518D0594518D0714501D1424615E09F
:10085000294EB14201D1012210E0274E1436B14297
:1008600001D110220AE0244E2836B14206D0224A95
:100870003C32914201D11A4600E02A461E49091F26
:100880000A602BE0B94213D0614517D0494522D008
:1008900051451DD059451DD0714501D142461AE040
:1008A000B14202D14FF0807215E0134EB14201D136
:1008B000012210E0104E1436B14201D110220AE09C
:1008C0000D4E2836B14206D00B4A3C32914201D13E
:1008D0001A4600E02A46074980394A60012180F81B
:1008E0002110002180F82010416B01B1884720467B
:1008F000BDE8F09F80000240080402402DE9F05F4F
:10090000C16B0A6801680B68046C4FF0040808FAB0
:1009100004F8844D844E854FDFF814C2DFF814923A
:10092000DFF814A2DFF814B2DFF814E218EA020FBD
:1009300065D05FEA437862D50A68920603D40A68F4
:1009400022F004020A60DFF8F0814FF4806201684F
:1009500008F1140813011402414524D9A9420DD00D
:10096000B1420FD0B9421AD0614515D0494515D0D2
:10097000514501D1120312E0594501D104220EE084
:10098000714501D140220AE06D4D1435A94206D0CF
:100990006B4A2832914201D11A4600E0224667494B
:1009A000091F0A6029E0A94213D0B14215D0B9420B
:1009B00020D061451BD049451BD0514502D14FF491
:1009C000800217E0414502D14FF0806212E05945A4
:1009D00001D104220EE0714501D140220AE0584DB8
:1009E0001435A94206D0564A2832914201D11A46FE
:1009F00000E022464B4908394A60C16A71E04FF075
:100A0000020808FA04F818EA020F70D05FEA837847
:100A10006DD50A68920606D40A6822F00A020A60B6
:100A2000012180F82110DFF810814FF40072016875
:100A300008F1140813011402414524D9A9420DD02C
:100A4000B1420FD0B9421AD0614515D0494515D0F1
:100A5000514501D1120312E0594501D102220EE0A5
:100A6000714501D120220AE0354D1435A94206D046
:100A7000334A2832914201D11A4600E022462F49DA
:100A8000091F0A6029E0A94213D0B14215D0B9422A
:100A900020D061451BD049451BD0514502D14FF4B0
:100AA000001217E0414502D14FF0007212E05945A3
:100AB00001D102220EE0714501D120220AE0204D31
:100AC0001435A94206D01E4A2832914201D11A4655
:100AD00000E02246134908394A60002180F82010BE
:100AE000816A00291CD0BDE8F05F0847FFE70825B0
:100AF000A540154214D01A0712D50A6822F00E023A
:100B00000A6090F84020C36B012101FA02F25A609A
:100B1000816380F82110002180F82010016BE0E74C
:100B2000BDE8F09F080002401C0002403000024077
:100B300044000240580002406C0002400804024099
:100B40001C04024030B560B11A4B026814219A426D
:100B500009D2194B1344B3FBF1F189000164174921
:100B60000AE0012030BD134B5B421344B3FBF1F1AB
:100B7000890001640F490839C163022180F82110FE
:100B8000136843F6F0718B43F0E901142143D0E977
:100B900002452C432143046921434469214384696C
:100BA00021431943116000214163012242770177FB
:100BB000084630BD08040240F8FFFDBF00000240B7
:100BC00070B5044690F82000002501280CD00120C3
:100BD00084F8200094F821600020012E06D084F8CB
:100BE00020000225284670BD022070BD022684F830
:100BF0002160A0632068066826F001060660204692
:100C0000FFF7AAFDE06A00282068016802D041F0E1
:100C10000E0106E021F0040101602068016841F046
:100C20000A0101602068016841F001010160D9E713
:100C30002DE9F84FDFF8C891002409F1040A0AF100
:100C4000040B23460F270BF1040ED1E00125A5402C
:100C500006EA0502AA4276D1DFF8A8C14E68A6EBE3
:100C60000C0866452BD00DDC032E34D005DC36B3E2
:100C7000012E19D0022E2FD11BE0112E16D0122ECC
:100C80002AD119E0B8F5881F19D006DCB8F5803FE5
:100C900015D0B8F5801F1FD111E0B8F5001F0ED098
:100CA000B8F5041F18D10AE0CB6815E0CB681B1D0E
:100CB00012E0CB6808330FE0CB680C330CE08B6894
:100CC0002BB1012B4FF0080303D0456104E004234E
:100CD00002E0056100E00023FF2A01D8064601E09A
:100CE00000F104064FEA840501D9A5F12005D6F8E4
:100CF000008007FA05FC28EA0C0803FA05F548EA23
:100D00000508C6F800804D68ED0070D53E4DAE690F
:100D100046F00106AE61AD6924F0030605F0010559
:100D200000953A4D06EB050CDCF80850A607360F87
:100D300007FA06F825EA0805DFF8D480404503D114
:100D40004FF0000825E052E0DFF8C880404502D1AE
:100D50004FF001081DE0DFF8C080404502D14FF0A0
:100D6000020816E0DFF8B480404502D14FF00308D6
:100D70000FE0DFF8AC80404502D14FF0040808E0F6
:100D8000DFF8A080404502D14FF0050801E04FF0A8
:100D9000060808FA06F848EA0508CCF808804D6805
:100DA000D9F80060ED034D4601D5164300E09643A7
:100DB0002E604D68DAF80060AD03554601D5164344
:100DC00000E096432E604D68DBF80060ED025D4662
:100DD00001D5164300E096432E604D68DEF80060B2
:100DE000AD02754601D5164300E096432E60641CA3
:100DF0000A681646E2407FF429AFBDE8F88F00008C
:100E000000040140000011100010024000000140E9
:100E100000080140000C0140001001400014014096
:100E200000180140001C01400AB10161704709042B
:100E3000FBE70000014880687047000018000020B0
:100E400002488168027811448160704718000020D0
:100E5000074810B5016841F010010160032000F05F
:100E600095F8002000F006F800F03EF8002010BDD4
:100E70000020024000B5014687B00022192000F092
:100E800065F8192000F054F81348816941F40061B5
:100E90008161806905A900F400600690684600F051
:100EA0001DF900F04BF90D490D4AB0FBF1F10D4869
:100EB000491E0260416040F2E7320021C0E903218F
:100EC000816000F034FB10B1012007B000BD05487F
:100ED00000F078FBF9E700000010024040420F00EC
:100EE000002C0140700200200F4808B5816941F0D4
:100EF00001018161816901F001010091C16941F045
:100F00008051C161C069002200F0805000900F2123
:100F1000901E00F01BF80548416821F0E06141F0A7
:100F20008061416008BD00000010024000000140E7
:100F3000002809DB00F01F020121914040098000D8
:100F400000F1E020C0F8001170470000F0B40E4B33
:100F50001B680C46C3F30223C3F10705042D00D917
:100F60000425191D072901D2002300E0DB1E0126FC
:100F700006FA05F1491E214099409E40761E164012
:100F80003143F0BC01F09ABC0CED00E0064900F0E2
:100F9000070208684FF6FF03184040EA0220034AA0
:100FA00010430860704700000CED00E00000FA05F7
:100FB0002DE9F0470F46050061D0434E306800F040
:100FC0000700B84209D2306820F00700384330608B
:100FD000306800F00700B84251D128683B4C8107C7
:100FE00012D5400703D5606840F4E060606028785F
:100FF000000703D5606840F4605060606068A968CD
:1010000020F0F000084360602878C00728D06868A6
:10101000012810D02168022810D0890700292EDA73
:10102000616821F0030101436160FFF703FF80461F
:1010300041F288390DE021688903EFE78901EDE786
:10104000FFF7F8FEA0EB0801494502D90320BDE8EF
:10105000F0876068696800F00C00B0EB810FEFD199
:10106000306800F00700B8420BD9306820F0070064
:1010700038433060306800F00700B84201D00120EA
:10108000E5E72878400705D56068E96820F4E06066
:10109000084360602878000706D56068296920F455
:1010A000605040EAC100606000F058F86168084A8A
:1010B000C1F30311515CC840064908600648006846
:1010C000FFF7D8FE0020C2E70020024000100240D7
:1010D000983D0008240000201C0000200F22026020
:1010E0000C4A536803F003034360536803F0F003B2
:1010F0008360536803F4E063C36052684FF4E063B5
:1011000003EAD20202610448006800F007000860A8
:1011100070470000001002400020024004480549CA
:1011200000684968044AC1F30221515CC840704715
:101130002400002000100240A83D00080448054992
:1011400000684968044AC1F3C221515CC840704735
:101150002400002000100240A83D000812A185B024
:101160000FC98DE80F0014A0144A0068049051685C
:10117000134801F00C03042B10D0082B0ED1C1F33F
:101180008343C9031DF803000AD5516804AAC1F3BB
:101190004041515C0A4A5043B0FBF1F005B0704742
:1011A00008494843FAE70000020304050607080956
:1011B0000A0B0C0D0E0F101001020000001002406F
:1011C00000127A0000093D002DE9F84F040070D0AC
:1011D0002078C04DC00749D06868C0F3810001285D
:1011E00007D06868C0F38100022809D16868C0038D
:1011F00006D52868800339D560680028E7D035E037
:101200006068B0F5803F0BD010B1B0F5A02F11D0C1
:10121000286820F480302860286820F4802002E0CC
:10122000286840F480302860606890B1FFF702FEC3
:1012300006460AE0286840F480202860F0E700BFF6
:10124000FFF7F8FD801B642873D828688003F7D562
:101250000CE0FFF7EFFD064605E000BFFFF7EAFDF3
:10126000801B6428F0D828688003F7D420789A4E31
:1012700080074FF001094FF0000839D5686810F079
:101280000C0F07D06868C0F38100022809D1686894
:10129000C00306D42868800714D52069012808D126
:1012A00010E02069B0B1C6F80090FFF7C3FD074613
:1012B00005E00AE1FFF7BEFDC01B0228C4D828687C
:1012C0008007F7D52868616920F0F80040EAC1007E
:1012D00028600DE0C6F80080FFF7ACFD074604E08B
:1012E000FFF7A8FDC01B022823D828688007F7D481
:1012F000207800072CD57948A169D9B1C0F80090B1
:10130000FFF798FD074604E0FFF794FDC01B022895
:101310000FD8686A8007F7D571484FF4FA51006812
:10132000B0FBF1F0009000BF0098411E0091FAD28E
:101330000EE080E0C0F80080FFF77CFD074604E087
:10134000FFF778FDC01B022875D8686A8007F7D4BC
:101350002078400760D5E8690027C00008D4E86914
:1013600040F08050E861E869012700F0805000906B
:101370005C480168C90513D40168834641F4807153
:101380000160FFF757FD824606E000BFFFF752FD00
:10139000A0EB0A0064284ED8DBF80000C005F5D5A4
:1013A000E06801280AD008B1052813D0286A20F087
:1013B00001002862286A20F0040002E0286A40F058
:1013C00001002862E06841F2883B98B1FFF732FDE6
:1013D00082460BE0286A40F004002862EEE700BF76
:1013E000FFF728FDA0EB0A0159455AD8286A800763
:1013F000F6D50CE0FFF71EFD824605E0FFF71AFD6B
:10140000A0EB0A0159454CD8286A8007F6D41FB1D1
:10141000E86920F08050E861E06988B36968C1F349
:101420008101022944D00228C6F8608004D0FFF769
:1014300001FD044638E034E0FFF7FCFC074604E019
:10144000FFF7F8FCC01B02282BD828688001F7D4CE
:10145000206AB0F5803F05D16868A16820F40030AB
:1014600008436860D4E908010843696821F47411ED
:1014700008436860C6F86090FFF7DCFC044606E0AD
:1014800025E000BFFFF7D6FC001B022809D828681A
:101490008001F7D51BE000BFFFF7CCFC001B022842
:1014A00002D90320BDE8F88F28688001F4D40EE04B
:1014B0000128F7D06868226A00F48031914204D193
:1014C000616A00F47010884201D00120EAE7002030
:1014D000E8E700000010024000004242800442425F
:1014E00024000020007000407047704770B590F8ED
:1014F0003C20012A19D0012400F83C4F02224270FE
:1015000050F83C3C5A689D6822F070060A684968A9
:10151000324325F0800529435A6050F83C2C9160F5
:10152000447000210170084670BD022070BD10B5E6
:10153000040003D094F83D0010B107E0012010BD75
:10154000002084F83C00204600F00CF8022084F8CB
:101550003D00211D206800F00FFF012084F83D00B0
:10156000002010BD08B501681448B1F1804F14D0B7
:10157000134A914220D1C16941F00201C161C069A1
:10158000002200F00200009005211D20FFF7DEFC84
:101590001D20BDE80840FFF7CBBCC16941F0010147
:1015A000C161C069002200F00100009005211C20EB
:1015B000FFF7CCFC1C20ECE708BD00000010024047
:1015C000000400400168CA6842F00102CA60006875
:1015D000816801F00701062903D0016841F001018B
:1015E00001600020704770B5044690F83C00012867
:1015F00017D0012584F83C50022084F83D00206873
:10160000826822F0770222F47F42826008685028C4
:1016100030D00DDC20284DD005DC98B310283BD10C
:1016200048E0022070BD302844D0402834D139E051
:10163000602828D0702806D0B0F5805F2CD0B0F597
:10164000005F29D10AE0CB68D1E90121206800F0D0
:10165000D9FE2068816841F0770109E0CB68D1E9C3
:101660000121206800F0CEFE2068816841F48041AD
:10167000816011E0CA684968206800F0D5FE5021F9
:10168000206807E016E0CA684968206800F0DDFEBF
:101690006021206800F0C0FE84F83D50002084F8EE
:1016A0003C0070BDCA684968206800F0BDFE40215A
:1016B0002068EFE7226801461046EBE7704770B5F7
:1016C0000446006801694FF00005C943890715D435
:1016D000C168C943890711D4E91E0161012020773F
:1016E000206880698007204602D0FFF7E7FF04E00A
:1016F00000F098F8204600F096F8257720680169F8
:10170000C943490717D4C168C943490713D46FF0C7
:1017100004010161022020772068806910F4407F75
:10172000204602D0FFF7CAFF04E000F07BF8204615
:1017300000F079F8257720680169C943090716D4B4
:10174000C168C943090712D46FF008010161042080
:1017500020772068C0698007204602D0FFF7AEFFDF
:1017600004E000F05FF8204600F05DF8257720687F
:101770000169C943C90617D4C168C943C90613D44E
:101780006FF010010161082020772068C06910F413
:10179000407F204602D0FFF791FF04E000F042F8BE
:1017A000204600F040F8257720680169C943C90741
:1017B00008D1C168C943C90704D1891E0161204607
:1017C00000F032F820680169C943090609D4C168EC
:1017D000C943090605D46FF0800101612046FFF777
:1017E00083FE20680169C943490609D4C168C94319
:1017F000490605D46FF040010161204600F01EF853
:1018000020680169C94389060BD4C168C9438906A8
:1018100007D46FF0200101612046BDE87040FFF75A
:1018200064BE70BD7047704700680349884201D1AB
:10183000FFF706BB70470000002C0140704710B551
:1018400004460068416994F83920C1F3C011212A87
:101850000BD151B1416921F080014161206B08B188
:10186000FEF791FF204600F060FE2068416994F881
:101870003A20C1F38011222A0BD151B1416921F0E4
:1018800040014161606B08B1FEF77DFF204600F02A
:101890003EFE002010BD704770B502680446106817
:1018A000D168536910F00F0F51D003F0010501F416
:1018B000907635435DD0C20705D0CA0503D5E26BEB
:1018C00042F00102E263420705D5DA0703D0E26B7A
:1018D00042F00202E263820705D5DA0703D0E26B29
:1018E00042F00402E263020705D5DA0703D0E26B97
:1018F00042F00802E263E26B002A34D0800604D58D
:10190000880602D5204600F019FE20684069E16B88
:10191000C0F3801001F008010143204624D000F0FC
:10192000F6FD2068416949061AD5416921F0400158
:101930004161606BA0B11B494163606BFEF746FFDC
:10194000002810D0606B416BBDE8704008478306EB
:101950000FD58B060DD52046BDE8704000F0EEBDDA
:101960002046FFF798FF70BDFFF795FF0020E0636A
:1019700070BD030606D50B0604D52046BDE87040B1
:1019800000F084BE4006F3D54806F1D5D168204664
:1019900021F04001D160202184F8391000F079F95C
:1019A00070BD00006F24000870B5040004D094F8E6
:1019B0003900002510B106E0012070BD84F83850D0
:1019C000204600F023F8242084F839002068C168FC
:1019D00021F40051C160204600F0FCFD206801693F
:1019E00021F4904101612068416921F02A0141619F
:1019F0002068C16841F40051C160E563202084F88B
:101A0000390084F83A00002070BD0000F0B585B0C0
:101A1000002400940194029403940646414F036805
:101A2000414802210322414DBB4226D1836943F440
:101A300080438361836903F480430493836943F0A3
:101A4000040383618069039200F00400049008029B
:101A5000CDE9000169462846FFF7EAF82815CDE9E7
:101A60000004694628460294FFF7E2F800220521A7
:101A70002520FFF76BFA252050E02D4FBB424FD1B8
:101A8000C36943F40033C361C36903F400330493AF
:101A9000836943F0040383618069039200F00400CA
:101AA00004900420CDE9000169462846FFF7C0F8FC
:101AB0000820CDE90004694628460294FFF7B8F8EB
:101AC0001D4D1C488027C5E90004C5E902472C616B
:101AD0006C61AC612846EC61FFF734F808B1FEF7A1
:101AE00051FE75636E62144D12484435143001C5C1
:101AF000102091C5104845F8104944306C61AC6124
:101B0000EC61FFF71FF808B1FEF73CFE35630022D9
:101B1000052126206E62FFF719FA2620FFF708FA42
:101B200005B0F0BD0038014000100240000801403F
:101B3000004400406C0002408C010020F8B50446CF
:101B400090F83A0020283CD1C1B3BAB394F83800D9
:101B5000012836D0012084F83800A162A285002532
:101B6000E563222084F83A00636B17489862636B40
:101B70001648D862636B16481863606B134645635A
:101B80000846666B216802463046091DFFF718F8C3
:101B9000206801684168009184F83850C16841F4B8
:101BA0008071C1602068416941F001014161206894
:101BB000416941F0400141610020F8BDFFE701208B
:101BC000FBE70220F9E70000C9240008052500080A
:101BD0007F240008704770472DE9F843044690F8C9
:101BE00039001F4616460D46202850D1A5B19EB19A
:101BF00094F8380001284AD0012084F838004FF0CA
:101C00000008C4F83C80212084F83900FFF712F95D
:101C1000A6848146E68426E00120BDE8F883E08CB6
:101C2000401EE084A0684B46B0F5805F4FF0000294
:101C30004FF080012046009703D000F058FDE8B92E
:101C40000DE000F054FDC8B928882168C0F30800F1
:101C50004860206908B16D1C05E0AD1C03E02168F7
:101C600015F8010B4860E08C0028D8D14B460022C3
:101C700040212046009700F03AFD08B10320CCE750
:101C8000202084F8390084F838800020C5E702203D
:101C9000C3E77047FEE700000D4808B5416941F011
:101CA000010141614069002200F00100009005211E
:101CB0001020FFF74BF91020FFF73AF90022052119
:101CC0001120FFF743F9BDE808401120FFF730B9B4
:101CD0000010024010B590B014221D496846FEF76E
:101CE0008FFA0021684600F018FF1A4C1849142298
:101CF000A060143105A8FEF783FA002105A800F0C2
:101D00000CFF1349E060142228310AA8FEF778FA84
:101D100000210AA800F001FF206100225A210320BF
:101D200001F0FCFB206078B10BA000BF00F0B6FD15
:101D300000220A21032001F0F1FB606030B10FA006
:101D400000F0ACFD10B010BD15A0EFE71DA0F7E747
:101D50005C3D00080000002043726561746520410D
:101D6000545F5265636976652051756575652053CA
:101D7000756363656564210D0A0000004372656147
:101D800074652041545F526573756C74205175659C
:101D900075652053756363656564210D0A00000055
:101DA0004372656174652041545F5265636976656D
:101DB000205175657565204661696C6564210D0A61
:101DC000000000004372656174652041545F5265F4
:101DD00073756C74205175657565204661696C6515
:101DE00064210D0A000000002DE9F04186B00024B6
:101DF0001F480094019402940394816941F01001FA
:101E00008161816901F010010491816941F004014F
:101E10008161816901F004010491816941F0080147
:101E200081618069134F00F008000490002218219E
:101E30003846FEF7F9FFDFF84080002201214046D6
:101E4000FEF7F2FF182001250226CDE90005CDE9B5
:101E5000024669463846FEF7EBFE03960095CDE94B
:101E6000015469464046FEF7E3FE06B0BDE8F08146
:101E70000010024000100140000C014010B586B077
:101E800000241748009401940294039404944FF0A2
:101E90008041059401604721C0E9011440F2E73117
:101EA000C0E9031480218161FFF741FB08B1FEF70F
:101EB00069FC4FF48050009069460948FFF793FB96
:101EC00008B1FEF75FFC049404A905480594FFF7E8
:101ED0000DFB002801D0FEF755FC06B010BD000038
:101EE0008C00002010B586B000241748009401949F
:101EF0000294039404941349059401604721C0E9B6
:101F0000011440F2E731C0E903148461FFF70FFBCD
:101F100008B1FEF737FC4FF48050009069460A483C
:101F2000FFF761FB08B1FEF72DFC049404A90648F5
:101F30000594FFF7DBFA002801D0FEF723FC06B07A
:101F400010BD000000040040CC0000200C4810B57B
:101F50000A4901604FF4E1314160002181600C22A7
:101F6000C160C0E904128161C161FFF71DFD002855
:101F700003D0BDE81040FEF705BC10BD003801409D
:101F80000C01002010B5114C0F480C2120604FF4BB
:101F9000165060600020A060E060C4E90401A06108
:101FA000E0612046FFF700FD08B1FEF7EBFB20687B
:101FB000C16841F01001C160BDE810405A220449D7
:101FC0000248FFF7BBBD0000004400404C01002068
:101FD00014020020FEE7704710B51D481D4C006834
:101FE000B0B10022214601F00FFC012803D01AA055
:101FF00000F054FC03E0217821A000F04FFC207891
:102000000C38052822D2DFE800F0050C13151A0061
:1020100022A0EDE72AA000F041FCBDE81040FEF749
:10202000ADB92CA000F03AFCBDE81040FEF7A4BA10
:102030002CA005E0BDE8104030A000F02FBC34A07B
:1020400000F02CFCBDE81040FEF7F0B910BD000018
:102050000400002016000020415420526573756C66
:1020600074205374617475732051756575652052C1
:102070006563697665204661696C6564210D0A00B7
:10208000415420526573756C742053746174757378
:10209000206973203A25640D0A0000004154205243
:1020A0006573756C74205374617475732051756514
:1020B000756520697320656D707479210D0A0000C3
:1020C0004154453120D6B4D0D0B3C9B9A6210D0AA8
:1020D0000000000041544920D6B4D0D0B3C9B9A6FD
:1020E000210D0A0041542B434D45453D3120D6B4C6
:1020F000D0D0B3C9B9A6210D0A00000041542B432A
:10210000494D49D6B4D0D0B3C9B9A6210D0A0000B3
:1021100041542B43494D49D6B4D0D0CAA7B0DC2195
:102120000D0A00002DE9F0411C4616468846074678
:102130000025FEF79BF882B24FF6FF7339461A4826
:10214000FFF74AFD6423012218A11748FFF744FD59
:102150006423012216A11448FFF73EFD394615A05D
:1021600000F09CFBC6B174B916E00A2001F06EF8CD
:1021700031464046FEF74EFA48B9012C03D112A071
:1021800000F08CFB0125641E2404240CEDD15A219F
:102190001548FEF74EF803E014A000F07FFB012580
:1021A0002846BDE8F08100004C0100200D00000031
:1021B0000A00000053656E64204154206973202595
:1021C00073210D0A000000005761697474696E671D
:1021D0002041542052657475726E2054696D656F8C
:1021E0007574210D0A000000B00200204F7468656C
:1021F00072A1ADA1AD210D0A000000004FF47A7468
:1022000003A000F04BFB204600F07BFCF8E7000049
:102210005468697320697320746865204465666139
:10222000756C74205461736B210D0A004FF4FA64CD
:1022300005A000F033FBFEF749F8002001F086F816
:10224000204600F05EFCF3E7546869732069732050
:10225000746865205461736B32210D0A0000000020
:102260004FF4FA6404A000F019FBFFF7B5FE204616
:1022700000F047FCF6E7000054686973206973209A
:10228000746865205461736B33210D0A00000000EF
:1022900010B5502080F31188BFF34F8FBFF36F8FBD
:1022A00001F010FC18B104494FF080500860002084
:1022B00080F3118810BD000004ED00E030B58FB050
:1022C00028216846FDF7B5FF14210AA8FDF7B1FFE4
:1022D00001210804CDE90010002402940225049194
:1022E000CDE907504FF4E01009906846FEF76CFF07
:1022F0000F20CDE90A056802CDE90C4002210AA8A9
:102300000E94FEF755FE0FB030BD00000D48016879
:1023100041F00101016041680B4A114041600168D0
:102320000A4A11400160016821F48021016041687E
:1023300021F4FE0141604FF41F0181600449C00394
:1023400008607047001002400000FFF8FFFFF6FE33
:1023500008ED00E00148FFF7B2B90000700200206C
:102360000148FFF7ACB900008C0000200148FFF7DE
:10237000A6B90000CC000020F0B502681C4B1D4D32
:102380001D4E1E4F1E4C4FF0804C984209D0A0426B
:1023900007D0604505D0A84203D0B04201D0B84272
:1023A00004D122F0700E4A6842EA0E02984209D027
:1023B000A04207D0604505D0A84203D0B04201D06A
:1023C000B84203D122F44075CA682A434D6922F00D
:1023D00080022A4302608A68C2620A688262984266
:1023E00001D0A04201D10969016301214161F0BD21
:1023F000002C01400004004000080040000C004098
:102400000034014010B5846842EA032224F47F447A
:102410000A432243826010BD826822F070020A43A0
:1024200042F007018160704710B5036A046A24F026
:1024300001040462846924F0F00444EA021423F0E5
:102440000A020A438461026210BD10B5036A23F0D8
:10245000100303628369046A23F4704343EA02327F
:1024600024F0A00343EA01118261016210BD10B59E
:10247000406A0021C185C184FFF70DFA10BD70B517
:10248000446A2068406994F83910C0F3C0100025F0
:10249000212904D118B1E584204600F046F82068CF
:1024A000406994F83A10C0F38010222904D118B181
:1024B000E585204600F02BF8E06B40F01000E0636B
:1024C0002046FFF7E8F970BD10B50146406A09687B
:1024D0000968890613D40021C1850168CA6822F4FD
:1024E0008072CA6001684A6922F001024A6101688B
:1024F0004A6922F040024A61202180F83A10FFF731
:1025000069FB10BD10B5406AFFF765FB10BD01689F
:10251000CA6822F49072CA6001684A6922F0010216
:102520004A61202180F83A1070470168CA6822F099
:10253000C002CA60202180F83910704710B590F8A9
:102540003A10222901D0022010BD8168B1F5805FC8
:1025500011D00169002901681FD0496801F07F038B
:10256000816A4A1C82620B70C18D491E0904090CE4
:10257000C18518D02BE00269816A002A026852687E
:1025800005D0D2B20A80816A491C8162ECE7C2F3AD
:1025900008020A80816A891CF7E74A68816A4B1C35
:1025A00083620A70E0E70168CA6822F02002CA600C
:1025B0000168CA6822F48072CA6001684A6922F020
:1025C00001024A61202180F83A10FFF703FB002046
:1025D00010BD00002DE9F041044600680169E26881
:1025E00021F44051114301612169A06808436169E8
:1025F00008432168CA6841F20C639A430243CA60E7
:1026000020684169A26921F44071114341611E496A
:10261000206864253226884202D1FEF78FFD01E052
:10262000FEF77CFD00EBC00101EB001160686FF06C
:1026300018078000B1FBF0F2B2FBF5F2B1FBF0F34A
:102640007A4303EB8202B1FBF0F306EB0212B2FB1A
:10265000F5F2B3FBF5F302F0F00202EB0312B1FB6B
:10266000F0F3B1FBF0F0B0FBF5F0784303EB800042
:1026700006EB0010B0FBF5F0216800F00F001044ED
:102680008860BDE8F08100000038014090F8391002
:10269000212901D0022070478168B1F5805F016A6D
:1026A0000BD04A1C0262026809785160C18C491E35
:1026B0000904090CC1840ED017E009880268C1F32F
:1026C0000801516001690029016A02D0491C0162B8
:1026D000ECE7891CFBE70168CA6822F08002CA6047
:1026E0000068C16841F04001C160002070472DE9D9
:1026F000F041984617460E460446069D1DE0681CAC
:102700001BD02DB1FEF796FBA0EB0800A84214D910
:102710002068C16821F4D071C1602068416921F04E
:1027200001014161202084F8390084F83A0000203A
:1027300084F838000320BDE8F0812068006836EA9C
:10274000000004D00020B842D9D00020F3E70120D7
:10275000F9E700000148FFF79FB800000C010020D6
:102760001CB52548FFF798F8234C24492068884277
:1027700041D123A000F092F820680168C1F3001154
:10278000002938D00168406801902046FFF757F8CB
:10279000244800684068C0F15A01234801700121B3
:1027A000417022480068C8B100236A46204900F001
:1027B000CDFF01280DD01FA000F070F8009880B167
:1027C00023494FF080500860BFF34F8FBFF36F8FE6
:1027D00007E017491FA000F061F8EFE71FA000F025
:1027E0005DF8FDF78FFF5A2211490348FFF7A6F95C
:1027F00020A000F053F81CBD4C0100200044004014
:10280000456E746572207468652075617274206904
:102810006E74657272757074207461736B210D0A29
:10282000000000008C0100201400002000000020A7
:102830001402002053656E64206461746120746F1B
:10284000205175657565204661696C210D0A00008F
:1028500004ED00E025730D0A000000005175657558
:102860006520437265617465204661696C210D0ABB
:10287000000000006F7574206F6620746865207515
:1028800061727420696E74657272757074207461FF
:10289000736B210D0A000000FEE700000FB4054B2A
:1028A00010B503A9044A029800F028F810BC5DF89E
:1028B00014FB0000B52A0008880000200907090E53
:1028C000002804DB00F1E02080F80014704700F0DD
:1028D0000F0000F1E02080F8141D704702E008C8E6
:1028E000121F08C1002AFAD170477047002001E08A
:1028F00001C1121F002AFBD1704700002DE9FF4FD4
:102900008BB09A460F460546002606E025280BD0D8
:1029100052460D9990476D1C761C28780028F5D1F9
:102920000FB03046BDE8F08F0024A0460122604978
:1029300000E0044315F8013F203B02FA03F008428F
:10294000F7D128782E2817D115F8010F44F0040488
:102950002A280ED06FF02F022878A0F13001092923
:102960000AD808EB880102EB410100EB01086D1C5D
:10297000F2E757F8048B6D1C287869283ED006DCF6
:102980000028CDD063280BD0642804D136E073280A
:1029900010D075284BD052460D999047761C85E093
:1029A00017F8040B8DF8000000208DF80100E946AF
:1029B000012003E057F8049B4FF0FF3061074FF010
:1029C000000401D40AE0641C44450DDA8442FADBB9
:1029D00019F804100029F6D106E0641C8442FCDBDF
:1029E00019F804100029F8D1264404E019F8010B65
:1029F00052460D999047641EF8D257E001CF4FF030
:102A00000A0B002802DA40422D2102E0210504D5FC
:102A10002B218DF82410012103E0E10705D02021AE
:102A2000F7E70DF1200908910CE00021F9E701CF4B
:102A30004FF00A0BF9E75946FDF71FFC01F1300290
:102A400009F8012D0028F6D1ADEB090000F1200BAB
:102A5000600701D44FF00108D84502DDA8EB0B0058
:102A600000E000208046002406E009A85246005DF0
:102A70000D999047641C761C08988442F5DB04E0AD
:102A8000302052460D999047761CB8F10001A8F10C
:102A90000108F5DC05E019F8010B52460D99904745
:102AA000761CBBF10001ABF1010BF4DC6D1C34E7CB
:102AB0000928010013B54FF47A73012269460248D0
:102AC000FFF78AF801201CBD0C010020FEF7C0F9B9
:102AD000FFF7F4FBFFF788F9FFF7DEF8FFF7CEF911
:102AE000FFF700FAFFF732FAFFF74CFAFFF7F2F8B8
:102AF00000F00EF8FEE701460020842900D0C81C33
:102B0000704710B500B9012000F0A0FB002010BDF7
:102B100010B500F0E7FB002010BD3EB504460D46A1
:102B2000B0F90800FFF7E7FF02A9CDE90001208A0C
:102B30002B4682B2D4E9001000F08AFF012801D0B0
:102B400000203EBD02983EBD2DE9F041184C0F46D5
:102B5000054666692068001D00F094FA38B92068BF
:102B600090F82C1001208840A1698143A161681C64
:102B700007D137B12168BDE8F0410E48091D00F0CA
:102B8000BABA20683544B5424560216805D2A068CC
:102B9000BDE8F041091D00F096BA6068091D00F01B
:102BA00092FA206B854200D22563BDE8F0810000D7
:102BB00028000020E80300202DE9F041054600F040
:102BC000A7FA2E4C2069401C206120682C4F10B1C0
:102BD000E06940B32DE025602069012829D1002655
:102BE00006EB860007EB800000F05FFA761C072EEC
:102BF000F6D323488C3000F058FA2148A03000F07A
:102C000054FA1F48B43000F050FA1D48C83000F0A4
:102C10004CFA1B48DC3000F048FA19488C306060F0
:102C20001430A06005E02068E96AC06A884200D8D4
:102C30002560E06A401CE062E96A0120A2698840E0
:102C40001043A06101EB810007EB8000291D00F01B
:102C500052FA00F07DFAE06900280CD02068E96A99
:102C6000C06A884207D207494FF080500860BFF31E
:102C70004F8FBFF36F8FBDE8F08100002800002068
:102C80000C03002004ED00E030B4026C0B46002A77
:102C90000BD0C1681144C1604468A14201D30168EE
:102CA000C16030BC1846FDF7ABBA30BC70472DE9A7
:102CB000F041856B174604460026026C82B1C7B10D
:102CC000E068FDF79DFAE168206C091AE16022686E
:102CD000914202D26168081AE060022F16D017E014
:102CE0002068A8B9606800F051FF064600206060C7
:102CF0000EE0A068FDF784FA216CA0680844A0608B
:102D00006168884204D32068A06001E005B16D1EAF
:102D10006D1CA5633046BDE8F08110B50446006B1C
:102D200000F02AFA2046BDE8104000F025BA000065
:102D300010484FF44061420706D0C01D0D4920F0F5
:102D40000700411AC1F540610B4A00230144C2E962
:102D500000030839103A21F0070111604B600B6045
:102D60000B1AC0E9001393604FF000405360D0602D
:102D700070470000FC03002074000020144E154C26
:102D8000A6F1C8074FF08058DFF84C9012E000BF62
:102D900000F0BEF9F068C568281D00F073F92069DD
:102DA000401E2061E068401EE06000F0D1F9284636
:102DB000FFF7B3FFE0680028EAD138680128F9D9A5
:102DC000C9F80080BFF34F8FBFF36F8FF2E70000A9
:102DD000D40300202800002004ED00E02DE9F04796
:102DE0009A46DDE9098481466FF00303206B03EB0B
:102DF00082021044089D20F00706700707D050207B
:102E000080F31188BFF34F8FBFF36F8FFEE7231856
:102E10000A5C83F834200A5C12B1401C1028F6D3F7
:102E2000002784F84370072D00D30625E562C4E926
:102E30001157201D00F044F904F1180000F040F98A
:102E40002461C5F107006462A061E76484F85070F2
:102E500052464946304600F003F92060B8F1000FB1
:102E600001D0C8F80040BDE8F087000030B5114936
:102E700000E011460A688242FBD34B685C1884422A
:102E800003D1406818444860084643681C189442BF
:102E900009D1084C103C2468A24209D052681A4457
:102EA00042600A6812680260814200D0086030BD4A
:102EB0000460F9E77400002010B5044600F028F91A
:102EC000A06B28B15FF0000400F042F9204610BD6D
:102ED0000124F9E706484168096829B14168C968D1
:102EE000C9684968016370474FF0FF31FAE7000095
:102EF0002800002008484068401C4FF0500080F334
:102F0000118804D0BFF34F8FBFF36F8FFEE7BFF37D
:102F10004F8FBFF36F8FFEE77C0000202DE9F0415B
:102F2000044600F0F5F894F9455004F1240609E050
:102F3000606A48B1304600F075FE08B100F0B4F99F
:102F40006D1E6DB2002DF3DC4FF0FF3684F8456046
:102F500000F0FEF800F0DCF894F9445004F110079A
:102F600009E0206948B1384600F05CFE08B100F085
:102F70009BF96D1E6DB2002DF3DC84F84460BDE852
:102F8000F04100F0E5B800002DE9F04105460027CA
:102F900000F03AFA314E306808B9FFF7C9FEF06820
:102FA00005424BD1C5B3083568070ED005F00700C0
:102FB000C0F108000544680707D0502080F311884D
:102FC000BFF34F8FBFF36F8FFEE72DB3706885425D
:102FD00034D82248103001460C6801E020460C46E7
:102FE0006168A94202D221680029F7D131688C4278
:102FF00024D007682168016060680837411B1029E8
:103000000FD96019420708D0502080F31188BFF310
:103010004F8FBFF36F8FFEE710E041606560FFF7F1
:1030200025FF61687068401A7060B268904200D2F3
:10303000B060F06801430020C4E9000100F02CFEFC
:10304000780707D0502080F31188BFF34F8FBFF36C
:103050006F8FFEE73846BDE8F08100006400002075
:1030600010B5031F4FF080741C601B1F21F001017D
:103070001960191F024B0B60143940380A6010BDEB
:10308000F52E0008D0E9013201699A60D0E90123E8
:103090005A604A68824201D182684A600022026115
:1030A0000868401E08600868704700F108014FF08A
:1030B000FF32C0E90112C160016100210160704767
:1030C00000210161704730B50B685A1C02D000F135
:1030D000080202E0026904E02246546825689D4225
:1030E000FAD953684B6099608A6051600861016841
:1030F000491C016030BD42684A6093688B609368E8
:103100005960916008610168491C016070470000C6
:10311000502080F31188BFF34F8FBFF36F8F0A49A0
:103120004868401C486001280CD10848006810F02D
:10313000FF0F07D0502080F31188BFF34F8FBFF3EC
:103140006F8FFEE7704700007C00002004ED00E078
:103150000849486828B1401E486001D180F31188B1
:103160007047502080F31188BFF34F8FBFF36F8FEC
:10317000FEE700007C00002070B5002827D0144D29
:10318000A0F108046168E868014207D1502080F38B
:103190001188BFF34F8FBFF36F8FFEE722683AB1FC
:1031A000502080F31188BFF34F8FBFF36F8FFEE77E
:1031B0008143616000F028F96068696808446860CC
:1031C0002046FFF753FEBDE8704000F065BD70BDBE
:1031D000640000204FF0E020002101618161054979
:1031E0004FF47A720968B1FBF2F1491E416107217F
:1031F000016170472400002010B5FCF7EBFF114976
:1032000010280ED300F1E02090F8F0030A789042E5
:1032100007D2502080F31188BFF34F8FBFF36F8F19
:10322000FEE709480068896800F4E060884207D931
:10323000502080F31188BFF34F8FBFF36F8FFEE7ED
:1032400010BD00007C0000200CED00E010B5020075
:1032500014D00F48806B38B1502080F31188BFF331
:103260004F8FBFF36F8FFEE700F0CEF800211046BE
:10327000FFF76AFC00F010FD002807D105494FF068
:1032800080500860BFF34F8FBFF36F8F10BD0000F9
:103290002800002004ED00E002498A6A02604969C2
:1032A00041607047280000200149012048627047B2
:1032B0002800002010B50C4650B1094909681831A2
:1032C000FFF701FF2046BDE810400121FFF73CBC9D
:1032D000502080F31188BFF34F8FBFF36F8FFEE74D
:1032E000280000201CB515480024CDE900402346E5
:1032F000802213A1144800F0ABFB012809D0401C28
:103300001AD1502080F31188BFF34F8FBFF36F8F16
:10331000FEE7502080F31188BFF34F8FBFF36F8F0C
:1033200006484FF0FF31343801630121C161446127
:10333000BDE81C4000F09EB81CBD00005C000020F1
:1033400049444C45000000007D2D000870B504463E
:10335000FFF7DEFE294D04B92C68201DFFF792FE11
:1033600058B9E06A264A00EB800152F8211021B9D1
:1033700001218140A8698843A861A06A18B104F1BD
:103380001800FFF77FFE1E48211DDC30FFF7B3FE5B
:1033900094F850000026012801D184F85060FFF70E
:1033A000D7FEE86928B1FFF7B3FEFFF793FDFFF7FB
:1033B000CFFE2868844213D1E86990B1A86B38B178
:1033C000502080F31188BFF34F8FBFF36F8FFEE75C
:1033D0000C494FF080500860BFF34F8FBFF36F8FE1
:1033E00070BD0748DC3000682969884201D12E6031
:1033F00070BDBDE8704000F00FB80000280000204C
:103400000C03002004ED00E00248816B491C81633D
:1034100070470000280000201448816B11B1012181
:1034200041627047002141628169B1FA81F1C1F1C5
:103430001F0101EB81020E4951F822306BB101EB03
:10344000820101F108034A6852684A609A4201D138
:1034500052684A60D16801607047502080F311883B
:10346000BFF34F8FBFF36F8FFEE7000028000020EF
:103470000C0300201CB5264908780190FF20087035
:1034800008788DF800009DF800009DF8002000F0FD
:10349000F000904207D0502080F31188BFF34F8F87
:1034A000BFF36F8FFEE79DF800001A4B00F050004D
:1034B00018700720986005E09DF8002052008DF8F4
:1034C0000020401E9DF800201206F5D498600328C5
:1034D00007D0502080F31188BFF34F8FBFF36F8F59
:1034E000FEE74FF440709860019808700A48016840
:1034F00041F470010160016841F070410160FFF723
:1035000069FE00205860FCF72FFE00201CBD000063
:1035100000E400E07C00002020ED00E070B50E46E5
:10352000050013D0D6B105FB06F04830FFF72CFD9F
:10353000040009D004F1480120468EB10160C0E9C1
:103540000F56012100F00EF8204670BD502080F388
:103550001188BFF34F8FBFF36F8FFEE70020E4E7C2
:103560000060ECE770B50D46040025D0FFF7D0FDF4
:10357000D4E90F20216802FB001161600021A163E2
:103580002168A1600A46D4E90F01401E00FB012119
:10359000E16021464FF0FF3001F8440F487004F11C
:1035A00010008DB1FFF781FD04F12400FFF77DFDD0
:1035B000FFF7CEFD012070BD502080F31188BFF3CE
:1035C0004F8FBFF36F8FFEE721690029F0D000F025
:1035D00029FB0028ECD004494FF080500860BFF36D
:1035E0004F8FBFF36F8FE3E704ED00E02DE9FF4756
:1035F00082B01D468A464FF00008040003D0BAF19D
:10360000000F08D011E0502080F31188BFF34F8FD6
:10361000BFF36F8FFEE7206C38B1502080F3118824
:10362000BFF34F8FBFF36F8FFEE7022D0AD1E06B20
:10363000012807D0502080F31188BFF34F8FBFF3CC
:103640006F8FFEE700F030FA3F4F4FF000094FF068
:10365000805648B9049838B1502080F31188BFF3E0
:103660004F8FBFF36F8FFEE7FFF752FDA06BE16B4B
:10367000884207D3022D05D00498D0B1B8F1000FCD
:103680001AD01EE02A4651462046FFF710FB616A19
:1036900019B104F1240000F0C5FA20B13E60BFF377
:1036A0004F8FBFF36F8FFFF753FD012006B0BDE8CA
:1036B000F087FFF74DFD22E06846FFF7EDFD4FF084
:1036C0000108FFF745FDFFF79FFEFFF721FD94F985
:1036D0004400401C01D184F8449094F94500401CFA
:1036E00001D184F84590FFF733FD04A9684600F046
:1036F00075F930B12046FFF711FC00F0CDFA00203B
:10370000D4E7FFF705FDA06BE16B884213D1FFF70B
:103710001FFD04F110000499FFF7CCFD2046FFF7D0
:10372000FDFB00F0B9FA00289ED13E60BFF34F8F39
:10373000BFF36F8F98E7FFF70BFD2046FFF7EEFB17
:1037400000F0AAFA90E7000004ED00E02DE9F04750
:103750001F4690468946040003D0B9F1000F08D0F7
:1037600011E0502080F31188BFF34F8FBFF36F8FAC
:10377000FEE7206C38B1502080F31188BFF34F8FE3
:10378000BFF36F8FFEE7022F0AD1E06B012807D04D
:10379000502080F31188BFF34F8FBFF36F8FFEE788
:1037A000FFF72AFD5020EFF3118680F31188BFF355
:1037B0004F8FBFF36F8FA06BE16B884206D3022F50
:1037C00004D0002086F31188BDE8F08794F94550B5
:1037D0003A4649462046FFF76AFA681C04D06D1C39
:1037E00084F845500120EDE7606A0028FAD004F122
:1037F000240000F017FA0028F4D0B8F1000FF1D03F
:103800000121C8F80010EDE72DE9F747002683B045
:103810008A46040003D0BAF1000F08D011E050200E
:1038200080F31188BFF34F8FBFF36F8FFEE7206CDB
:1038300038B1502080F31188BFF34F8FBFF36F8FE3
:10384000FEE700F031F9DFF8F4804FF000094FF0A7
:10385000805748B9059838B1502080F31188BFF3DC
:103860004F8FBFF36F8FFEE7FFF752FCA56BC5B11B
:1038700051462046FFF708FA6D1EA563206950B136
:1038800004F1100000F0CEF928B1C8F80070BFF3C1
:103890004F8FBFF36F8FFFF75BFC012006B0BDE8D1
:1038A000F087059808B11EB106E0FFF751FC27E04C
:1038B0006846FFF7F1FC0126FFF74AFCFFF7A4FD7D
:1038C000FFF726FC94F94400401C01D184F8449091
:1038D00094F94500401C01D184F84590FFF738FC6D
:1038E00005A9684600F07AF8002820460AD0FFF7BC
:1038F00015FB00F0D1F92046FFF7DEFA0028B3D01F
:103900000020CBE7FFF7D8FA90B104F12400059925
:10391000FFF7D0FC2046FFF701FB00F0BDF90028BF
:10392000A2D1C8F80070BFF34F8FBFF36F8F9BE732
:103930002046FFF7F3FA00F0AFF995E704ED00E059
:103940002DE9F04790468946040003D0B9F1000FF5
:1039500008D011E0502080F31188BFF34F8FBFF3E0
:103960006F8FFEE7206C38B1502080F31188BFF3D1
:103970004F8FBFF36F8FFEE7FFF73EFC5020EFF352
:10398000118680F31188BFF34F8FBFF36F8FA76B42
:10399000F7B194F9445049462046FFF775F97F1E68
:1039A000A763681C04D06D1C84F84450012010E00B
:1039B00020690028FAD004F1100000F033F9002843
:1039C000F4D0B8F1000FF1D00121C8F80010EDE7F4
:1039D000002086F31188BDE8F08700002DE9F04152
:1039E0000C46050011D0C4B1FFF792FB174B5A6982
:1039F0006E682068911B471C17D02F689B6A9F42F6
:103A000019D0964217D8012410E0502080F3118875
:103A1000BFF34F8FBFF36F8FFEE7502080F3118805
:103A2000BFF34F8FBFF36F8FFEE70024FFF790FBCC
:103A30002046BDE8F081884205D9401A206028461A
:103A4000FFF72AFCF1E700202060DCE728000020D7
:103A50002DE9FF5F8346DDE90E87994616468A46C3
:103A60009000FFF791FA05001AD05420FFF78CFA66
:103A7000040012D025630021CDE90241CDE9008781
:103A80004B46324651465846FFF7A8F92046FFF705
:103A900093F8012004B0BDE8F09F2846FFF76CFBC7
:103AA0004FF0FF30F6E700000548C16919B1806B9F
:103AB00018B10020704701207047022070470000B5
:103AC000280000202DE9F0412E4C0027A06B40B1CA
:103AD000206A401C2062606A00B101273846BDE8B8
:103AE000F0816669761C666113D16068006838B140
:103AF000502080F31188BFF34F8FBFF36F8FFEE725
:103B00006068A1686160A060A06A401CA062FFF7C5
:103B1000E1F9206BDFF87080864209D360680068A5
:103B200080B16068C068C568686886420DD220634D
:103B30002068C06A00EB800158F821000128CAD92A
:103B40000127C8E74FF0FF30F1E7281DFFF79AFA89
:103B5000A86A18B105F11800FFF794FAE86A012184
:103B6000A26981401143A16100EB800108EB810053
:103B7000291DFFF7C0FAE86A2168C96A8842CDD3D7
:103B80000127CBE7280000200C03002070B50400BB
:103B90004FF0000140D0214D2868844207D05020CA
:103BA00080F31188BFF34F8FBFF36F8FFEE7A06CD8
:103BB00038B1401EA064636CE26A9A422CD040B1D6
:103BC0002AE0502080F31188BFF34F8FBFF36F8F2F
:103BD000FEE7201DFFF756FA114A012150B9E06AAD
:103BE00000EB800352F8233023B9AB6901FA00F0EF
:103BF0008343AB61606CE062C0F10700A061E06AE2
:103C0000AB6981401943A96100EB800002EB8000A1
:103C1000211DFFF770FA0121084670BD2800002021
:103C20000C0300202DE9F041C068C468ACB104F178
:103C300018000746FFF726FA154DA86B0126A0B11C
:103C400039461448FFF757FAE06A2968C96A88427A
:103C50001CD901206E62BDE8F081502080F31188EC
:103C6000BFF34F8FBFF36F8FFEE7201DFFF70AFAF8
:103C7000E16AAA6906FA01F01043A86101EB81002C
:103C80000449B43901EB8000211DDBE70020E2E7A5
:103C900028000020C00300202DE9F0472C4D00240F
:103CA0002746A86B38B1FFF733FAA86B401EA8630C
:103CB000A86B40B146E0502080F31188BFF34F8FCE
:103CC000BFF36F8FFEE72969224E0120D1B3A6F121
:103CD000B40980463068E8B1F068C46804F118009F
:103CE000FFF7D0F9201DFFF7CDF9E06AAA6908FABD
:103CF00000F11143A96100EB800109EB8100211D56
:103D0000FFF7F9F9E06A2968C96A8842E2D3C5F881
:103D10002480DFE70CB1FFF7DDF82C6A44B146469A
:103D2000FFF7D0FE00B16E62641EF9D10020286258
:103D3000686A38B10849012738070860BFF34F8F18
:103D4000BFF36F8FFFF704FA3846BDE8F087000035
:103D500028000020C003002004ED00E0C83D00085A
:103D6000FD210008000000000000000064000000C9
:103D7000B03D00082D220008FEFF000000000000FA
:103D800064000000BC3D000861220008FDFF000047
:103D900000000000640000000000000000000000BF
:103DA00001020304060708090000000001020304E1
:103DB0006D795461736B3032000000006D7954618D
:103DC000736B30330000000064656661756C745479
:103DD00061736B00F43D0008000000208C000000BF
:103DE000DC280008803E00088C00002074130000CE
:103DF000EC280008000000000000000000000000A7
:103E000000000000000000000000000001000000B1
:103E100010000000000000000024F400000000007A
:103E20000000000000000000000000000000000092
:103E30000000000000000000000000000000000082
:103E40000000000000000000000000000000000072
:103E50000000000000000000000000000000000062
:103E60000000000000000000000000000000000052
:103E700000000000AAAAAAAA00000000000000009A
:0400000508000131BD
:00000001FF
